:020000040800F2
:10000000A00E00200501000849140008E3080008BC
:10001000410F0008F501000823200008000000003F
:10002000000000000000000000000000B11B0008FC
:100030000105000800000000751A0008B51C000842
:100040001F0100081F0100081F0100081F01000810
:100050001F0100081F010008610600081F010008B9
:100060001F0100081F0100081F0100081F010008F0
:100070001F0100081F0100081F0100081F010008E0
:100080001F0100081F0100081F0100081F010008D0
:100090001F0100081F0100081F0100081F010008C0
:1000A0001F0100081F0100081F0100081F010008B0
:1000B0001F0100081F0100081F0100081F010008A0
:1000C0001F0100081F0100081F0100081F01000890
:1000D0001F010008A51D00081F0100081F010008DE
:1000E000850600081F0100081F010008DFF810D076
:1000F00000F042F80048004725220008AFF30080D6
:10010000A00E00200648804706480047FEE7FEE7AD
:10011000FEE7FEE7FEE7FEE7FEE7FEE7FEE7FEE7B7
:10012000451D0008ED000008D2B201E000F8012BE7
:10013000491EFBD270470022F6E710B513460A4667
:1001400004461946FFF7F0FF204610BD30B50B46B8
:10015000014600202022012409E021FA02F59D42F7
:1001600005D303FA02F5491B04FA02F52844151ECB
:10017000A2F10102F1DC30BD064C074D06E0E0685B
:1001800040F0010394E8070098471034AC42F6D3DE
:10019000FFF7B0FF204C0008404C000808B512489B
:1001A0004023712200210090072001F0D9F9C820D6
:1001B00000F068F90D4840237122002100900720CB
:1001C00001F0CEF94FF4967000F05CF90848402336
:1001D000712200210090072001F0C2F94FF4FA705B
:1001E00000F050F908BD00009848000810450008CC
:1001F000003E000800BFFEE708B500200090012186
:10020000084601F049FC25208DF8000001208DF8FA
:10021000010000208DF8020001208DF803006846DF
:1002200001F014F908BD000010B5FFF7E5FF00F07C
:1002300009F800F035F80121014801F014FE10BD65
:10024000003801401FB500200090019002900390FB
:100250000121880301F020FC4FF4E13000900020E0
:10026000ADF80C000C20ADF80A000020ADF8080035
:10027000ADF80600ADF804006946084801F05CFEE0
:10028000012240F22551054801F030FE012240F2E2
:100290002441024801F02AFE1FBD00000038014041
:1002A00008B5002000900121042001F0F5FB182082
:1002B0008DF803004FF40070ADF8000003208DF8B6
:1002C000020069460A4800F06DFA0121042001F09D
:1002D000E3FB48208DF803004FF48060ADF8000088
:1002E00003208DF802006946014800F05BFA08BD62
:1002F0000008014038B50446002000904FF48050BB
:10030000ADF800008DF8034003208DF80200694627
:10031000014800F047FA38BD000C014008B5002044
:1003200000900121082001F0B7FB4FF48050ADF898
:10033000000028208DF8030003208DF80200694694
:10034000014800F02FFA08BD000C014070B50025EF
:10035000002427E000BF4FF48051144800F0ADFAAC
:100360000028F8D0282000F099F84FF480510F4869
:1003700000F0A3FA01280ED100BF4FF480510B48C2
:1003800000F09BFA0128F8D0C4F107010120884051
:10039000C0B2054304E0C4F1070101208840854351
:1003A000601CC4B2082CD5DB284670BD000C01408F
:1003B00070B5044600251420FFF79CFF4FF48051D0
:1003C0002F4800F083FA142000F05CF84FF48051BD
:1003D0002B4800F07DFA4820FFF78CFF142000F036
:1003E0005DF84FF48051264800F067FA002845D1A7
:1003F00000BF09E02846691CCDB2532801DD00206A
:1004000070BD012000F04AF84FF480511C4800F004
:1004100054FA0028EED0002509E02846691CCDB228
:10042000572801DD0020EBE7012000F037F84FF4FA
:100430008051134800F041FA0128EED0FFF786FF03
:100440002070FFF783FF6070FFF780FFA070FFF759
:100450007DFFE070FFF77AFF2071362000F01EF874
:10046000207861780844A1780844E178084421792B
:10047000884201D10120C3E70020C1E70020BFE787
:10048000000C014030B50446002504E04FF47A70BA
:1004900000F004F86D1CA542F8D330BD10B501463C
:1004A00008480068084CB0FBF4F000FB01F200F0D3
:1004B0000DF8034600BF00F009F8C01A9042FAD3C5
:1004C00010BD00000000002040420F0001484068BD
:1004D00070470000001000E00748006840F080709E
:1004E000054908600020054948600846006840F05A
:1004F0000100086070470000FCED00E0001000E023
:100500007047000010B51F48007A012838D11E48F6
:100510000078222834D11D48FFF74AFF012827D14F
:100520001BA001F081FD1948407800F0800030B137
:100530001648427801781DA001F076FD05E01348C9
:100540004278017821A001F06FFD1048C07800F0DA
:10055000800030B10D48C278817823A001F064FD9D
:1005600009E00A48C278817825A001F05DFD02E02B
:1005700029A001F059FD01202E49087000F066F80D
:1005800010BD000090040020700000207C000020BE
:10059000524541445F44485431315F444154412005
:1005A0005355434345535321200D0A00E6B9BFE597
:1005B000BAA6E4B8BA202D25642E2564EFBC85EFD9
:1005C000BCB2EFBCA8200D0A00000000E6B9BFE5F0
:1005D000BAA6E4B8BA2025642E2564EFBC85EFBC2A
:1005E000B2EFBCA8200D0A00E6B8A9E5BAA6E4B8A7
:1005F000BA202D25642E256420E28483200D0A0074
:10060000E6B8A9E5BAA6E4B8BA2025642E25642088
:10061000E28483200D0A0000524541445F4448545F
:1006200031315F44415441204552524F52210D0A0D
:10063000000000007200002000B50246024802607F
:1006400000F004F800BD000090040020034800689A
:1006500002494860002008727047000090040020A2
:1006600010B5012000F028F8012805D103490870D1
:100670000349087000F01AF810BD00007300002054
:100680007100002010B54FF4005000F015F801285B
:1006900006D10449087004490870400300F006F8C8
:1006A00010BD0000740000207100002001490860A6
:1006B000704700001404014001460020034A1268FC
:1006C0000A400AB1012000E00020704714040140F4
:1006D000002123498279002A3AD00A461268036829
:1006E0009A430B461A600A1D126803689A430B1D51
:1006F0001A60027911440A6803681A430A60184AAA
:100700000832126803689A43154B08331A601A1DA1
:10071000126803689A43124B0C331A604279102A0C
:100720000ED11A1F126803681A430D4B08331A6062
:100730001A1D126803681A43094B0C331A600DE046
:100740000749427911440A6803681A430A6005E0C0
:10075000027911440A6803689A430A6070470000EE
:100760000004014030B500228B071C0F0F2303FA51
:1007700004F20B4B8C1053F824309343084C8D102B
:1007800044F8253023468C1053F824308C07240F6E
:1007900000FA04F42343024C8D1044F8253030BD98
:1007A000080001402DE9F041024600250026002006
:1007B00000230024002791F803C00CF00F0591F8E6
:1007C00003C00CF0100CBCF1000F03D091F802C074
:1007D0004CEA050591F800C0BCF1000F31D0146857
:1007E00000202BE04FF0010C0CFA00F3B1F800C030
:1007F0000CEA03069E4220D183004FF00F0C0CFA46
:1008000003F7BC4305FA03FC4CEA040491F803C067
:10081000BCF1280F06D14FF0010C0CFA00FCC2F815
:1008200014C00AE091F803C0BCF1480F05D14FF0A5
:10083000010C0CFA00FCC2F810C0401C0828D1D3EF
:100840001460B1F800C0BCF1FF0F34DD5468002023
:100850002EE000F1080C4FF0010808FA0CF3B1F893
:1008600000C00CEA03069E4221D183004FF00F0C1A
:100870000CFA03F7BC4305FA03FC4CEA040491F8B4
:1008800003C0BCF1280F05D100F1080C08FA0CF8E0
:10089000C2F8148091F803C0BCF1480F07D100F1F1
:1008A000080C4FF0010808FA0CF8C2F81080401C40
:1008B0000828CED35460BDE8F0810246002093683A
:1008C0000B400BB1012000E00020704741617047F0
:1008D0000161704710B50446A1882068FFF7EDFF5D
:1008E00010BD00BFFEE770B50246002400250023BE
:1008F0000020958A138B1B0445EA030626F07F44EB
:1009000004EA01068E4201D1012000E0002070BD02
:1009100021B1028842F00102028004E002884FF611
:10092000FE731A400280704721B1028842F480723F
:10093000028004E002884FF6FF631A40028070478D
:1009400021B1028842F40072028004E002884FF66E
:10095000FF531A40028070470CB502460020002366
:100960000193009300920B0F019321F07F41019BB3
:100970001BB1009B1433009303E0090C009B183358
:100980000093009B1B680B400BB1012000E000208E
:100990000CBD00002DE9F04385B004460D4600264D
:1009A000B1460427DFF8CC80A6884FF6C070064019
:1009B000684601F081F8DDF808802F48B8FBF0F0B8
:1009C0001FFA80F946EA0906A68020884FF6FE71D4
:1009D0000840208000262949286888420CD82868C9
:1009E0004000B8FBF0F087B2042F00DA04273E4342
:1009F00009F10100208427E0E8884BF6FF71884266
:100A000006D1286800EB4000B8FBF0F087B209E09F
:100A1000286800EBC00101EB0010B8FBF0F087B2D2
:100A200047F48047C7F30B0008B947F0010747F4C4
:100A3000004006434FF4967009FB00F04FF47A71C2
:100A400090FBF1F0401C2084A683208840F0010038
:100A5000208026884FF6F5300640A888698908432B
:100A600006432680A88929890843208105B0BDE86E
:100A7000F083000000127A0040420F00A0860100BF
:100A800012B141F0010102E04FF6FE7319400182FC
:100A900070470182704700002DE9F04105460C4681
:100AA0000A260F4F04B900E00E4F44EA4500C1B2D8
:100AB00000220D48FFF7E4FF09E0761E012000F058
:100AC0002CF826B900F0DCF80020BDE8F0813946AA
:100AD0000548FFF708FF0028EFD00120F5E70000E8
:100AE00082000700020003000054004070B5054674
:100AF000002400F099F80446012C01D0204670BD76
:100B000000212846FFF7C8FF0446012C01D02046EB
:100B1000F5E700F0B5F80120F1E710B504462046EE
:100B2000FFF7BCFC10BD000010B500F02FF800F07E
:100B300007F801210148FFF7EBFE10BD005400400B
:100B40001FB50020009001900290039001214805FC
:100B500000F092FF0020ADF804004BF6FF70ADF8F6
:100B600006000A20ADF808004FF48060ADF80A00D6
:100B70000001ADF80C000348009069460248FFF7F9
:100B800009FF1FBD801A06000054004008B5002070
:100B900000900121082000F07FFF40211248FFF75C
:100BA00097FE1C208DF803004020ADF800000320C4
:100BB0008DF8020069460C48FFF7F4FD012108207A
:100BC00000F06AFF80210848FFF782FE1C208DF8A4
:100BD00003008020ADF8000003208DF80200694674
:100BE0000148FFF7DFFD08BD000C014070B5044669
:100BF0000A2521460A48FFF74CFF08E06D1E012038
:100C0000FFF78BFF1DB900F03BF8002070BD0549D0
:100C10000348FFF768FE0028F0D00120F6E7000047
:100C2000005400408400070010B50A2406E0641E4A
:100C30000120FFF772FF0CB9002010BD4FF4003106
:100C40000D48FFF789FE0028F1D101210A48FFF77E
:100C50006BFE0A2408E0641E0120FFF75EFF1CB94A
:100C600000F00EF80020E8E704490348FFF73BFED8
:100C70000028F0D00120E0E700540040010003000C
:100C800010B501210148FFF75BFE10BD0054004084
:100C900008B5002000900121042000F0FDFE012194
:100CA0001F48FFF715FE0120ADF8000004208DF865
:100CB000030003208DF8020069461948FFF772FD12
:100CC0000121102000F0E8FE4FF400511548FFF715
:100CD000FFFD4FF40050ADF8000004208DF8030034
:100CE00003208DF8020069460E48FFF75BFD0121E5
:100CF000082000F0D1FE4FF400410B48FFF7E8FD5B
:100D00004FF40040ADF8000028208DF803000320C8
:100D10008DF8020069460448FFF744FD08BD000055
:100D20000008014000100140000C014010B5FFF721
:100D3000AFFF00F00DF800F039F8034800F077F845
:100D4000024800F074F810BD300000205000002070
:100D50001CB50020009001900121084600F09CFE87
:100D600000210846FFF7FEFC0120009000208DF8CE
:100D700004000C208DF8050001208DF8060068465F
:100D8000FFF7A6FC0D210220FFF7ECFC4FF400500A
:100D9000009000208DF804000C208DF80500012043
:100DA0008DF806006846FFF793FC1CBD08B50020CF
:100DB00000900121084600F06FFE06208DF800002B
:100DC00001208DF8010000208DF8020001208DF82F
:100DD0000300684600F03AFB28208DF8000001204F
:100DE0008DF8010000208DF8020001208DF803002D
:100DF000684600F02BFB08BD70B505460E4614464C
:100E000031462846FFF759FDA0420ED1142000F0CC
:100E1000C6FE00BF31462846FFF74FFDA042F9D07D
:100E2000142000F0BCFE012070BD0020FCE710B5CE
:100E30000446A079022807D12046FFF74BFD08B9E8
:100E4000012000E00020A07110BD000008B50020C6
:100E500000900121042000F01FFE02212748FFF727
:100E600037FD0220ADF8000010208DF803000320AC
:100E70008DF8020069462148FFF794FC0121042007
:100E800000F00AFE04211D48FFF722FD0420ADF802
:100E9000000010208DF8030003208DF80200694641
:100EA0001648FFF77FFC0121042000F0F5FD082122
:100EB0001248FFF70DFD0820ADF8000010208DF856
:100EC000030003208DF8020069460C48FFF76AFC16
:100ED0000121082000F0E0FD20210948FFF7F8FC7F
:100EE0002020ADF8000010208DF8030003208DF8BD
:100EF000020069460248FFF755FC08BD00080140A2
:100F0000000C014070B505460E46144624B9314622
:100F10002846FFF7DDFC03E031462846FFF7D6FC04
:100F200070BD70B505460E46144624B931462846B4
:100F3000FFF7CCFC03E031462846FFF7C9FC70BD43
:100F400000BFFEE700B5ADF2044D0122D103FE481B
:100F5000FFF752FF01283FD1FC48007800F00F0056
:100F600060BB00F0B5FA0120F9490870F748007835
:100F700020B9F6480078F54908702DE0F34800786C
:100F8000302813D1F3480078012807D1EF480078C2
:100F900000F0F000801CED4908701DE0EB4800787F
:100FA00000F0F000401CE949087015E0E7480078BF
:100FB00000F0F000401CE54908700DE000F088FAF0
:100FC000C820FFF75FFA0120E3490870DF48007886
:100FD00000F0F000DD490870E0480078012803D0F7
:100FE000DF480078012868D1D848007800F00F0069
:100FF00038BBDA48007858B1D448007818B9402096
:10100000D249087004E0D14800781038CF49087000
:10101000D348007860B1CD480078402803D1002043
:10102000CA49087004E0C94800781030C749087000
:101030000020CB490870C94908700120C6490870D2
:101040003BE0C6480078B8B1C0480078312803D1E9
:101050003220BE49087006E0BC480078322802D130
:101060003120BA490870B9480078412804D1BD48F8
:101070000068401CBB490860B9480078A8B1B34873
:101080000078312803D13220B049087006E0AF481B
:101090000078322802D13120AC490870AB48007882
:1010A000412802D10020AF4908600020AC490870F7
:1010B000AA4908700120A6490870A448007800F0E9
:1010C0000F0000286ED1A448007801286AD100F0F2
:1010D000FFF99E480078202825D003DC38B110287D
:1010E0005AD10DE0302831D0402855D141E09E48FA
:1010F00032231A4601210090262000F031FA4CE0FC
:101100009A4832231A4601210090262000F028FA3E
:101110000B220021022000F093FB0C220721022069
:1011200000F08EFB39E0924832231A4601210090EC
:10113000272000F015FA0B220021022000F080FB8E
:101140000C220721022000F07BFB26E08948322395
:101150001A4601210090262000F002FA0B220021FD
:10116000022000F06DFB0C220721022000F068FB3A
:1011700013E0814832231A4601210090262000F016
:10118000EFF90B220021022000F05AFB0C2207216C
:10119000022000F055FB00BF00BF00BF00206E49D9
:1011A00008703FE16A4800780128FAD16748007862
:1011B00000F0F00020281FD003DC38B1102874D1D3
:1011C0000DE0302872D04028F9D1F8E0664832238B
:1011D0001A4601210090262000F0C2F91EE15B486A
:1011E0000078112807D16548402380220021009013
:1011F000084600F0B5F911E154480078212822D1C1
:1012000000F066F906220121084600F019FB0822C9
:101210000221012000F014FB0D220321012000F027
:101220000FFB07220121032000F00AFB0822022104
:10123000032000F005FB0D220321084600F000FB0F
:1012400022204249087041480078222855D14FF4A5
:10125000007181A8FEF76FFF4FF4007101A8FEF73F
:101260006AFF4021012000F099FA402281A910462E
:1012700000F046FB4021032000F090FA402201A933
:10128000104600F03DFB0E220721012000F0D8FAA5
:101290003B48C07800F0800048B13948C378827874
:1012A00038A181A800F0D0FE08E0B6E026E034487E
:1012B000C378827835A181A800F0C6FE3048407816
:1012C00000F0800038B12E484378027831A101A89F
:1012D00000F0BAFE06E02A484378027830A101A85F
:1012E00000F0B2FE81AA0821012000F0F5FA01AA5F
:1012F0000821032000F0F0FA00BF8FE013480078C7
:10130000312810D129481423342216210090252099
:1013100000F026F900200F490870002220210A4819
:10132000FFF7F0FD4AE009480078322846D120480E
:101330001423342216210090252000F011F90120F9
:1013400004490870002235E0000C014070000020C4
:101350007200002075000020710000207300002042
:101360007400002078000020CA31000828330008EB
:1013700086340008E43500087A380008CA2D0008D1
:101380007C0000202D25642E2564000025642E2578
:10139000640000002D25642E256420252552480078
:1013A00025642E256420252552480000DE370008DC
:1013B0004237000820211D48FFF7B3FD2EE01C48EE
:1013C0000078412814D11B48322355220E21009069
:1013D000142000F0C5F81848FFF79FFB00F078F8DC
:1013E0001648322343220E2100901D2000F0B8F849
:1013F0008021E1A8FEF79FFE1148AFF27401026858
:10140000E1A800F021FE4021002000F0C7F9E1AA88
:101410000721002000F060FA00E000BF00BF0020BC
:10142000084908700DF2044D00BD0000000C014099
:1014300070000020AD3B0008400D0300D8390008C3
:1014400078000020720000207047000070B5002175
:1014500000230F22C47804B3154C246804F4E0641C
:10146000C4F5E064210AC1F10403CA40447804FAD7
:1014700003F184781440214309010E4C0678A155EC
:10148000047804F01F050124AC4005786D11AD000F
:1014900005F1E025C5F8004109E0047804F01F05D6
:1014A0000124AC40044D0678761145F8264070BD05
:1014B0000CED00E000E400E080E100E002490143BF
:1014C000024A1160704700000000FA050CED00E0D0
:1014D00010B5002000F0C0F810BD00002DE9F0416B
:1014E0008046642700240026002509E03C20FFF701
:1014F000FDFA012802D1601CC4B201E0701CC6B222
:10150000381EA7F10101CFB2F0D14120FFF7EEFA6A
:10151000012801D0681CC5B25A2C07DD012D05D168
:1015200005A000F081FD0120BDE8F08107A000F0DA
:101530007BFD0020F8E70000E9809AE4BFA1E6B552
:101540008BE8AF95E6ADA3E5B8B80000E9809AE472
:10155000BFA1E6B58BE8AF95E5A4B1E8B4A500005E
:101560002DE9FE4F81460D4617461C46002002908D
:101570000190681CC11700EB5171C910A0EBC101AB
:1015800041B13DB12846E91705EB5171C910491C1D
:10159000C9060D0E2846E91705EB5171C1F3C708BE
:1015A0004E46B8F1070F05DC7F2E03DC402C01DC32
:1015B000802F01DDBDE8FE8FE11704EB5171C910EA
:1015C000A4EBC10139B12046E11704EB5171C910F8
:1015D000491CCCB205E02046E11704EB5171C1F380
:1015E000C70408EB0400082802DDC8F10800C4B2F3
:1015F000F019802802DDC6F18000C7B207FB04F0B5
:1016000001900198B0F5806F02D34FF48060019093
:10161000F01900F0FF0AC34600BF3146584600F0FB
:10162000BDF8009610E00298421C02920C9A115CE0
:10163000402000F0C5F9DDE90110884200D1B9E78A
:101640000098401CC0B2009000985045EBDB0BF1B5
:10165000010000F0FF0BE0E730B5A1B005468021A6
:1016600001A8FEF768FD2A46802101A8FEF75CFD6F
:1016700000240AE00021204600F090F8802201A911
:10168000402000F03DF9601CC4B2082CF2DB21B010
:1016900030BD000010B54048FFF73FFA00BF3C20C6
:1016A000FFF71CFF0028FAD0AE21002000F088F9D7
:1016B0002021002000F084F90221002000F080F9B0
:1016C000B021002000F07CF9A121002000F078F981
:1016D000C821002000F074F90021084600F070F9DC
:1016E0001021002000F06CF94021002000F068F982
:1016F0008121002000F064F9FF21002000F060F952
:10170000A121002000F05CF9A621002000F058F98A
:10171000A821002000F054F93F21002000F050F9EA
:10172000A421002000F04CF9D321002000F048F95A
:101730000021084600F044F9D521002000F040F9CE
:10174000F021002000F03CF9D921002000F038F908
:101750002221002000F034F9DA21002000F030F9D5
:101760001221002000F02CF9DB21002000F028F9E4
:101770002021002000F024F98D21002000F020F924
:101780001421002000F01CF9AF21002000F018F90E
:10179000FFF79EFE10BD000040420F0038B5054621
:1017A0000C4605F1B000C0B28DF80000102040EAF0
:1017B00014108DF8010004F00F008DF802000322D0
:1017C0006946002000F09CF838BD00002DE9F0418A
:1017D0000546884616461F46A6F12004414628467F
:1017E000FFF7DCFF062F02D0082F20D109E004EB21
:1017F0004400114A02EB40010622402000F080F82C
:1018000016E00E4800EB04110822402000F078F8A2
:10181000691CC8B24146FFF7C1FF084800EB04103D
:1018200000F108010822402000F06AF800E000BF43
:1018300000BFBDE8F0810000542400087C260008A9
:101840002DE9F04104460D4617462601F21706EB36
:101850005272C2F3C7002A07110E034B3A4600F03A
:1018600005F8BDE8F0810000742200082DE9F04180
:101870000546884616461C46770141462846FFF72E
:101880008DFFE1191022402000F03AF8691CC8B21F
:101890004146FFF783FFE01900F1100110224020BC
:1018A00000F02EF8BDE8F0812DE9F04180460D46AC
:1018B00014461E4600270AE014F8012B07FB0650C9
:1018C000C1B233464046FFF781FF781CC7B220788B
:1018D0000028F1D1BDE8F0812DE9F04104460D4624
:1018E0001746E600F21706EB5272D2105206100E9F
:1018F000EA06110E08233A46FFF7D6FFBDE8F0814D
:101900002DE9F04180460D4616460024FFF78CF97C
:101910000446012C02D02046BDE8F08100213C2085
:10192000FFF7BAF80446012C06D014A000F07CFBA7
:10193000FFF7A6F92046EFE74046FFF757F90446C0
:10194000012C06D011A000F06FFBFFF799F920469B
:10195000E2E700270CE015F8010BFFF747F9044612
:10196000012C04D00FA000F05FFB0020D4E77F1C07
:10197000B742F0D3FFF784F90120CDE7E59CB0E54D
:101980009D80E5A4B1E8B4A500000000E58699E6D5
:101990008C87E4BBA42FE695B0E68DAEE5A4B1E854
:1019A000B4A50000E585B7E4BD93E68C87E4BBA44D
:1019B0002FE695B0E68DAEE5A4B1E8B4A500000031
:1019C00070B506460D460024FFF72EF90446012C9B
:1019D00001D0204670BD00213C20FFF75DF8044691
:1019E000012C06D012A000F01FFBFFF749F920469A
:1019F000F0E73046FFF7FAF80446012C06D010A0B5
:101A000000F012FBFFF73CF92046E3E72846FFF71A
:101A1000EDF80446012C06D00FA000F005FBFFF7FF
:101A20002FF92046D6E7FFF72BF90120D2E7000077
:101A3000E59CB0E59D80E5A4B1E8B4A500000000F8
:101A4000E58699E68C87E4BBA42FE695B0E68DAEDB
:101A5000E5A4B1E8B4A50000E585B7E4BD93E68C44
:101A600087E4BBA42FE695B0E68DAEE5A4B1E8B45B
:101A7000A50000007047000029B1064AD269024360
:101A8000044BDA6104E0034AD2698243014BDA6114
:101A9000704700000010024029B1064A92690243D3
:101AA000044B9A6104E0034A92698243014B9A61B4
:101AB000704700000010024030B5002100220024D1
:101AC00000232D4D6D6805F00C0121B1042905D0CE
:101AD000082923D105E0294D056022E0274D056046
:101AE0001FE0254D6D6805F47012234D6D6805F4F7
:101AF0008034022505EB92421CB9214D5543056007
:101B00000BE01D4D6D6805F400351DB11C4D5543AE
:101B1000056002E0194D5543056002E0174D056070
:101B200000BF00BF144D6D6805F0F0010909154DA7
:101B30006B5C0568DD4045600F4D6D6805F4E06144
:101B4000090A104D6B5C4568DD4085600A4D6D6883
:101B500005F46051C90A0B4D6B5C4568DD40C560FA
:101B6000054D6D6805F44041890B074D6B5CC568F8
:101B7000B5FBF3F5056130BD0010024000127A009C
:101B800000093D00140000202400002001B50020C1
:101B900001E000BF401C00998842FAD308BD01B59E
:101BA00041F65832009901FB02F0FFF7EFFF08BD44
:101BB000704710B500F002F810BD00000CB5002011
:101BC000019000903348006840F48030314908604B
:101BD00000BF3048006800F4003000900198401CBD
:101BE0000190009818B90198B0F5A06FF1D129487B
:101BF000006800F4003010B10120009001E00020E6
:101C000000900098012843D12348006840F010005C
:101C1000214908600846006820F00700086008466F
:101C2000006840F0020008601A484068194948609E
:101C30000846406848600846406840F48060486054
:101C40000846406820F47C1048600846406840F42C
:101C5000E81048600846006840F08070086000BFE7
:101C60000C48006800F000700028F9D0094840686E
:101C700020F00300074948600846406840F0020031
:101C8000486000BF0348406800F00C000828F9D104
:101C90000CBD000000100240002002400448D0E9C2
:101CA00000305A1C40F100000149C1E90020704792
:101CB0002800002010B5FFF7F1FF0748406848B141
:101CC00005484068401E044948600846406808B915
:101CD0000120087210BD00009004002030B51648A5
:101CE00000684FF47A72B0FBF2F1B1F1807F01D35A
:101CF00001201DE021F07F40401E4FF0E0225061A6
:101D000050170F22002807DA13071D0E0B4B00F0A7
:101D10000F04241F1D5503E013071C0E084B1C5411
:101D200000BF00204FF0E0229061072010610020EA
:101D300008B100BFFEE730BD0000002018ED00E054
:101D400000E400E010B51348006840F001001149BC
:101D5000086008464068104908400E494860084637
:101D600000680E4908400B4908600846006820F4E6
:101D7000802008600846406820F4FE0048604FF468
:101D80001F008860FFF715FF4FF0006004490860EE
:101D900010BD0000001002400000FFF8FFFFF6FE3B
:101DA00008ED00E010B5002440F22551244800F071
:101DB00073F801282FD1224800F02AF9C4B2214833
:101DC000D0F8000440F2FF3188420ED21D48D0F80E
:101DD000040450B91B48D0F800041A490C540846B2
:101DE000D0F80004401CC1F800041648D0F80004E4
:101DF00040F2FF31884209D100201249D1F8001485
:101E0000104A505401201146C1F8040440F22551F3
:101E10000B4800F019F840F22441094800F03CF862
:101E200001280CD1064800F0F3F800200549D1F84C
:101E30000014044A505401201146C1F8040410BD96
:101E4000003801408800002010B50022002340F631
:101E50006A14A14200D100BF0A1201249440A3B227
:101E6000DC43048010BD21B1828942F4005282819A
:101E700004E082894DF6FF731A4082817047024662
:101E80000020B1F5007F00D100BF13880B400BB1DB
:101E9000012000E00020704770B5024600240023B6
:101EA0000025002040F66A16B14200D100BFC1F300
:101EB000421501F01F03012606FA03F3012D02D19A
:101EC0009689334006E0022D02D1168A334001E0A4
:101ED000968A33400C12012606FA04F41688344020
:101EE00013B10CB1012000E0002070BDF0B5034635
:101EF000002400260025002040F66A17B94200D1D0
:101F000000BF1846C1F3421401F01F06012707FA6B
:101F100006F5012C01D10C3004E0022C01D1103067
:101F200000E014301AB107682F43076002E0076829
:101F3000AF430760F0BD00002DE9F04786B00546CD
:101F40000E460024A24600BFA1460027B08900B17A
:101F500000BF2F462C8A4CF6FF700440F0880443E3
:101F60002C82AC894EF6F3100440B08831890843C6
:101F7000718908430443AC81AC8A4FF6FF400440AA
:101F8000B0890443AC8201A8FFF796FD1F48874241
:101F900002D1DDF810A001E0DDF80CA0A88900F462
:101FA000004040B10AEBCA0000EB0A10316849005A
:101FB000B0FBF1F807E00AEBCA0000EB0A10316849
:101FC0008900B0FBF1F86420B8FBF0F004012009AF
:101FD000642101FB1089A88900F4004040B132203F
:101FE00000EBC900B0FBF1F000F00700044308E08B
:101FF000322000EB09106421B0FBF1F000F00F007B
:1020000004432C8106B0BDE8F08700000038014091
:1020100001468888C0F308007047C1F30802828037
:10202000704700BFFEE700000FB4054B10B503A9D1
:10203000044A029800F02CF810BC5DF814FB000074
:10204000F1210008840000200FB4084B10B504A94A
:1020500002AA039800F01CF8044602A9002000F030
:10206000C1F8204610BC5DF814FB0000E521000813
:1020700002E008C8121F08C1002AFAD17047704751
:10208000002001E001C1121F002AFBD170470000AF
:102090002DE9FF4F89B09B460446002506E0252820
:1020A0000BD05A460B999047641C6D1C2078002871
:1020B000F5D10DB02846BDE8F08F0027B8460122C3
:1020C000474900E0074314F8013F203B02FA03F0C0
:1020D0000842F7D120782E2819D114F8010F47F0C3
:1020E00004072A280ED06FF02F022078A0F13001CB
:1020F00009290CD808EB880102EB410100EB01082B
:10210000641CF2E70A98641C50F8048B0A9020784B
:102110000028CED0642808D0692806D075281ED0A3
:102120005A460B9990476D1C58E00A994FF00A09DE
:1021300001C90A91002802DA40422D2102E0390546
:1021400004D52B218DF82010012103E0F90704D0DC
:102150002021F7E78A4608AE0DE00021FAE70A9948
:102160004FF00A0901C90A91F7E74946FDF7EEFF6A
:10217000303106F8011D0028F7D1ADEB060000F163
:102180002009780701D44FF00108C84502DDA8EB0B
:10219000090000E000208046002706E008A85A4613
:1021A000C05D0B9990476D1C7F1C5745F6DB04E022
:1021B00030205A460B9990476D1CB8F10001A8F1E8
:1021C0000108F5DC05E016F8010B5A460B9990471B
:1021D0006D1CB9F10001A9F10109F4DC641C65E78B
:1021E000092801000A68531C0B601070704700003A
:1021F00070B504460D4600BF40210948FFF73FFE79
:102200000028F9D0E1B20648FFF707FF00BF8021A0
:102210000348FFF734FE0028F9D0204670BD0000C7
:10222000003801404FF44070FFF748F9FEF77EFD9B
:10223000FEF70CFEFEF778FCFDF7F6FFFEF76EF8F2
:10224000FFF74CFDFEF748F9FFF724FAFFF740F9D6
:102250004FF4FA70FEF7F0F9FDF7A0FF01200449F2
:10226000087003E0FEF76EFEFEF74CF9FAE7000097
:102270007100002004047454545454FF54545454B2
:1022800074040400040415151555957F15151515CE
:102290001F04040004047454545454FF54545454FC
:1022A00074040400040415151555957F15151515AE
:1022B0001F0404001010F01F1010F00000F80808B0
:1022C00008F800008041221408166100007F2020D9
:1022D000207F0000101012D2565A5253525A56D232
:1022E000121010004030007785858DB5858585E713
:1022F00000106000404044445464454644645444E3
:1023000044404000000000FF49494949494949FF0C
:10231000000000000000E09C848484F482828382B8
:1023200080800000002010080640807F000002042A
:10233000083000001060028C0000FE92929292928F
:10234000FE00000004047E01407E42427E427E4246
:10235000427E40001060028C00FE92929292929215
:10236000FE00000004047E014448507F40407F503E
:10237000484440000000FC242424FC252624FC249E
:102380002424040040308F80844C55252525554C4D
:1023900080808000807000FF201004040404FC048E
:1023A00004040400806018070830000040807F00AB
:1023B00000000000000000FE52525252525252FEE3
:1023C000000000000808884F291909090919294F38
:1023D000880808000000000080402090482412096E
:1023E0000402000000000000000102040912244859
:1023F00010200000000002040912244890204080B0
:10240000000000000000201048241209040201000E
:1024100000000000000000000000000000000000BC
:102420000000000000003636000000000000000040
:1024300000000000060909E6F80C0402020202028C
:10244000041E0000000000071F30204040404040B4
:10245000201000000000000000000000002F00001D
:1024600000000700070000147F147F1400242A7F57
:102470002A120062640813230036495522500000D6
:102480000503000000001C224100000041221C0046
:102490000014083E08140008083E0808000000A0C8
:1024A00060000008080808080000606000000020C4
:1024B00010080402003E5149453E0000427F4000A2
:1024C000004261514946002141454B310018141228
:1024D0007F10002745454539003C4A4949300001F5
:1024E0007109050300364949493600064949291E44
:1024F00000003636000000005636000000081422A6
:1025000041000014141414140000412214080002A5
:102510000151090600324959513E007C1211127CCA
:10252000007F49494936003E41414122007F4141F7
:10253000221C007F49494941007F09090901003EE9
:102540004149497A007F0808087F0000417F410027
:10255000002040413F01007F08142241007F40409D
:102560004040007F020C027F007F0408107F003E85
:102570004141413E007F09090906003E4151215E6B
:10258000007F091929460046494949310001017F68
:102590000101003F4040403F001F2040201F003FFE
:1025A0004038403F006314081463000708700807B0
:1025B00000615149454300007F41410000552A55C3
:1025C0002A55000041417F0000040201020400403E
:1025D0004040404000000102040000205454547860
:1025E000007F484444380038444444200038444480
:1025F000487F00385454541800087E09010200181E
:10260000A4A4A47C007F080404780000447D40005A
:10261000004080847D00007F102844000000417F3E
:102620004000007C04180478007C0804047800381A
:102630004444443800FC242424180018242418FCA2
:10264000007C0804040800485454542000043F440B
:102650004020003C4040207C001C2040201C003CCE
:102660004030403C004428102844001CA0A0A07C1E
:10267000004464544C441414141414140000000056
:10268000000000000000000000000000000000F852
:1026900000000000000000330000000000100C02E9
:1026A000100C020000000000000000000040C07894
:1026B00040C0780000043F04043F04000070888894
:1026C000FC08300000182020FF211E00F008F080D8
:1026D0006018000000310C031E211E0000F0088865
:1026E000700000001E21232C1927211000120E005B
:1026F000000000000000000000000000000000E0FA
:10270000180402000000000718204000000204180E
:10271000E00000000040201807000000404080F06A
:10272000804040000202010F010202000000000090
:10273000E0000000000101010F01010100000000A4
:102740000000000000907000000000000000000089
:102750000000000000010101010101000000000073
:102760000000000000303000000000000000000009
:10277000C0380400006018070000000000E01008E6
:102780000810E000000F102020100F0000001010B3
:10279000F8000000000020203F2020000070080802
:1027A0000808F000003028242221300000300808FA
:1027B000088870000018202121221C0000008040A1
:1027C00030F8000000060524243F242400F88888FF
:1027D000880808000019202020110E0000E0108851
:1027E00088900000000F112020201F00001808080A
:1027F000886818000000003E010000000070880892
:1028000008887000001C222121221C0000F008080A
:102810000810E0000001122222110F00000000C089
:10282000C000000000000030300000000000008008
:1028300000000000000000E00000000000008040F8
:102840002010080000010204081020000040404051
:102850004040400000020202020202000008102074
:1028600040800000002010080402010000704808A9
:10287000088870000000003037000000C030C82811
:10288000E810E000071827282F2817000000C0389C
:10289000E0000000203C23020227382008F8888846
:1028A00088700000203F202020110E00C030080852
:1028B00008083800071820202010080008F8080829
:1028C0000810E000203F202020100F0008F8888822
:1028D000E8081000203F20202320180008F88888EE
:1028E000E8081000203F200003000000C030080866
:1028F0000838000007182020221E020008F80800EF
:102900000008F808203F210101213F20000808F8B5
:10291000080800000020203F2020000000000808D8
:10292000F8080800C08080807F00000008F888C098
:1029300028180800203F20012638200008F8080049
:1029400000000000203F20202020300008F8F80080
:10295000F8F80800203F013E013F200008F830C091
:102960000008F808203F200007183F00E010080882
:102970000810E0000F10202020100F0008F80808B1
:102980000808F000203F210101010000E0100808C4
:102990000810E0000F10282830504F0008F88888F1
:1029A00088887000203F2000030C302000708808C9
:1029B000080838000038202121221C00180808F8D7
:1029C000080818000000203F2000000008F8080058
:1029D0000008F808001F202020201F000878880029
:1029E00000C83808000007380E01000008F800F899
:1029F00000F8080000033E013E030000081868804C
:102A00008068180820302C03032C30200838C800B8
:102A1000C83808000000203F200000001008080807
:102A2000C83808002038262120201800000000FEA9
:102A3000020202000000007F40404000000438C055
:102A400000000000000000010638C0000002020281
:102A5000FE000000004040407F0000000000040233
:102A60000204000000000000000000000000000060
:102A7000000000008080808080808080000202044E
:102A80000000000000000000000000000000808046
:102A90008000000000192424123F200010F0008064
:102AA00080000000003F112020110E000000008077
:102AB00080800000000E1120202011000000808086
:102AC0008090F000001F202020103F200000808018
:102AD00080800000001F242424241700008080E050
:102AE000909020000020203F2020000000008080E7
:102AF00080808000006B94949493600010F00080BC
:102B000080800000203F210000203F200080989816
:102B1000000000000020203F202000000000008076
:102B20009898000000C08080807F000010F00000B6
:102B300080808000203F240629302000001010F8FB
:102B4000000000000020203F2020000080808080C6
:102B500080808000203F20003F20003F8080008058
:102B600080800000203F210000203F200000808066
:102B700080800000001F202020201F008080008017
:102B80008000000080FF912020110E0000000080D6
:102B900080008000000E11202091FF808080800046
:102BA0008080800020203F212000010000008080E4
:102BB000808080000033242424241900008080E0D9
:102BC000808000000000001F202010008080000096
:102BD00000808000001F202020103F208080800087
:102BE0008080800000030C300C0300008080008097
:102BF00080008080010E300C073806010080808044
:102C0000008080000020310E2E3120008080800066
:102C10000080808000818678180601000080808016
:102C2000808080000021302C222130000000000034
:102C300000FC020200000000013E404000000000D5
:102C4000FF00000000000000FF0000000202FC0086
:102C50000000000040403E010000000000020102B0
:102C6000020402000000000000000000F8FCFEFE6C
:102C7000FEFEFEFEFEFEFEFEFEFEFEFEFEFEFEFE74
:102C8000FEFEFEFEFEFE3EFEFEFEFEFEFEFEFEFE24
:102C9000FEFEFEFEFEFEFEFEFEFEFCF80000FFFF56
:102CA000FFFFFFFFFFFFFFFFFFFFFFFFFFFFFFFF34
:102CB000FFFF7F7F3F1F07010081FFFFFFFFFFFF37
:102CC000FFFFFFFFFFFFFFFFFFFFFFFFFFFF000012
:102CD000FFFFFFFFFFFFFFFFFFFFFFFFFFFF3F0FB4
:102CE00007030100000000E070183EFFFFFFFF7FB8
:102CF0003F0103FFFFFFFFFFFFFFFFFFFFFFFFFF9E
:102D00000000FFFFFFFFFFFFFFFFFFFFFFFFFFFFD1
:102D1000FEFEFEFCF8F0E0E0C0C3C488808080C006
:102D2000C0E0E0F0FCFFFFFFFFFFFFFFFFFFFFFF42
:102D3000FFFF0000FFFFFFFFFFFFFFFFFFFFFF811F
:102D4000AF03A38383BFA90B833BBFFFFFFF87FFB5
:102D5000FF3D017FFF8F87BF9FFFFFFFFFFFFFFF4B
:102D6000FFFFFFFF00007FFFFFFFFFFFFFFFFFFFF1
:102D7000FFF6F6F0FAFAFAFFE7E0FFFFFFFFFFE7E2
:102D8000F7F3F9FCFEFCF9F3F7E7FFFFFFFFFFFFA6
:102D9000FFFFFFFFFF7F00000000010101010101B3
:102DA0000101010101010101010101010101010113
:102DB0000101010101010101010101010101010103
:102DC000010101010101000000000003050911FFDC
:102DD000118905C300E000F000F8000000000000C9
:102DE000004428FF11AA4400000000000000000079
:102DF00000000000000000000000000000000000D3
:102E000000000000000000000000000000000000C2
:102E100000000000000000000000000000000000B2
:102E20000000000083013844829292740183000004
:102E300000000000007C44C7017D7D7D7D017D7D1B
:102E40007D7D017D7D7D7D01FF0000000000000192
:102E5000000100010001000100010000000000006D
:102E60000000000101000000000000000000000060
:102E70000000000000000000000000000000000052
:102E80000000000000000000000000000000000042
:102E90000000000000000000000000000000000032
:102EA000000000000101000000000000010100001E
:102EB0000000000000000001010101010101010109
:102EC00001010101010101010100000000000000F9
:102ED000000000404040404000006D6D6D6D6D0091
:102EE00000606060606000004040404040000000C2
:102EF00000000000000000000000000000000000D2
:102F000000000000000000000000000000000000C1
:102F100000000000000000000000000000000000B1
:102F200000000000000000000000000000000000A1
:102F30000000000000000000000000000000000091
:102F40000000000000000000000000000000000081
:102F5000000000DBDBDBDBDB0000DBDBDBDBDB00E3
:102F600000DBDBDBDBDB0000DBDBDBDBDB0000DAF9
:102F7000DADADADA0000D8D8D8D8D80000C0C0C071
:102F8000C0C00000C0C0C0C0C00000C0C0C0C0C041
:102F90000000C0C0C0C0C0000080808080800000F1
:102FA0000000000000000000000000000000000021
:102FB0000000000000000000000000000000000011
:102FC0000000000000000000000000000000000001
:102FD00000000006060606060000060606060600B5
:102FE000000606060606000006060606060000069F
:102FF0000606E666200006068606060000060606A9
:103000000686000006060606060000868686868678
:1030100080808686068686C0C08686860606D03074
:1030200076060606060000060606060600000606E8
:103030000606060000060606060600000606060648
:10304000060000000000000000000000000000007A
:103050000000000000000000000000000000000070
:103060000000000000000000000000000000000060
:1030700000000000601C00FE00010200C4182002D5
:103080009E63B20E00FF8181FF00008040300F0080
:10309000000000FF0023EAAABFAAEA033F00FF00E6
:1030A0000000000000000000000000000000000020
:1030B0000000000000000000000000000000000010
:1030C0000000000000000000000000000080808080
:1030D0000000000000808080000000000000000070
:1030E00000000000000000000000000000000000E0
:1030F00000000E0C080000010101010100000001A8
:1031000000000001008180808180818080808001BA
:103110000101010000000100000001000101090C93
:103120000E00000000000000000000000000000091
:103130000000C0C0C0C0C0C0C0C0C0C0C0C0C0C00F
:10314000C0C0C0C0C0C0C0C0C000001E21404050B0
:10315000215E001E21404050215E00000000000062
:10316000000000000000000000000000000000005F
:10317000000000000000000000000000000000004F
:103180000000000000FFFFC1C1FFFFC1C1FFFF0041
:10319000000000000000000000000000000000002F
:1031A000000000000000000000000000000000001F
:1031B0000000FFFF80FCF3EFF3FC80FF80EEEEEEFB
:1031C000F5FBFF9CBEB6B688FF00000000000000C3
:1031D0000000000000008080C0C0E0E0E0F0F0F0FF
:1031E000F0F0F0F0F0F0F0F0F0F0E0E0E0C0C080DF
:1031F000800000000000000000000000000000004F
:1032000000C0E0F8FC7E1E1F0F07030381C1C180D0
:103210000000000000C0C0800000000081C18103E8
:1032200003070F0F1E7EFCF8F0C000000000000036
:1032300000F8FFFFFF030000000000000000FFFF98
:10324000FFFFF0F0F0F0FFFFFFFF00000003F7F7D3
:10325000F7010000000000000003FFFFFFFC00007A
:10326000000000031F7FFFF8E0C0800000000000A6
:103270003F3F3F3F000000000E3F3F3F0000000087
:103280003F3F3F080000000080C0E0F8FF7F1F07BD
:103290000000000000000000000107070F1F3E3C77
:1032A000787878F0F0E0E0E0E0C0000000C0E0E016
:1032B000E0E0F0F0F078783C3E1F0F0F07030000CD
:1032C00000000000000000000000000000000000FE
:1032D000000000000000000001030F1F3F3C3F1FE3
:1032E0000F030100000000000000000000000000CB
:1032F00000000000000000000000000000000000CE
:1033000000000000000000000000000000000000BD
:1033100000000000000000000000000000000000AD
:10332000000000000000000000000000000000009D
:10333000000000000000000000000000000000008D
:10334000000000000000000000000000000000007D
:10335000307878FEFFFFFF7878380000000000002A
:10336000000000000000000000000000008080C09D
:10337000C0C0C0E0E0E0F0F0F0F0787878F8F8F85D
:10338000F000000000010303010000000000000045
:103390000000000000000000000000000000FCFF32
:1033A000FFFF03030301010101000000000000FF13
:1033B000FFFFFF0000000000000000000000000010
:1033C000000000000000000000C0E0F0F0F0F0F0AD
:1033D000FFFFFFFF000000000000E0F0F8FC3C3CB5
:1033E0007CFFFFFFFF000000000000000000000065
:1033F00000000000000000000000001F3F7F7F78F9
:1034000078787F3F3F0F000000000000070F1F3F4C
:103410003E3C3E1F1F0F07000000000000000000A0
:103420000000707878FEFFFEFC787020000000003D
:10343000000000000000000000000000000000008C
:10344000000000000000000000000000000000007C
:103450000000000000000003030301000000000062
:10346000000000000000000000000000000000005C
:10347000000000000000000000000000000000004C
:103480000000000000000000000000000080C0E01C
:10349000F078783C3C1E0E0E0F0F07070707070752
:1034A000070707070F0E0E1E1E3C3C78F0F0E0C029
:1034B00080000000000000000000C0F0FC7E1F073C
:1034C000030100000000E0F0303878F0E000000078
:1034D00000000000000000000000000000000001EB
:1034E00001070F1F7EFCF0E08000F8FFFF0F0100D6
:1034F0000000000000000000FFFF000000FFFF00D0
:103500000030F0E0F8F0CC8CFFFF8CC4F0F8F0F065
:1035100000000000000000010FFFFFF8FFFFFFC0E8
:103520000000000000000080E0F03F9FC0C0C09F8E
:103530003FF0E0B03E3C7C2CC7C7FFFFC78F7C7CD0
:103540003C34000000000000000080FFFF7F000707
:103550001F7FFCF8E0C0000000030F1F3C3F7776A0
:103560007733381F0F010000000000000301000046
:103570000000000000000000C0E0F8FC3F1F070052
:10358000000000000001070F0F1E3C7C78F0F0E007
:10359000C0C0C0C080808080808080808080C0C0AB
:1035A000C0E0E0F070783C3C1E0F07030100000013
:1035B000000000000000000000000000000000000B
:1035C00000010101030303030303030303030303D4
:1035D00003010101000000000000000000000000E5
:1035E00000000000000000000000000000000000DB
:1035F000000000000000000000000000FCFCFC00D7
:10360000000000000000000000000080000000003A
:1036100000000000000000000000000000000000AA
:10362000070F1F1E1C1880C0C0E0F070F0F0F1F111
:10363000F0F0F0F0E0E0C08000181C1E0F0703005F
:10364000000000000000000000000000C0C0C0C07A
:10365000C0C0C00000E0FCFEDFE7F9FCFEFFFFFF9A
:10366000FFFFFFFFFFFFFFFFFFFFFFFEF8000080EF
:10367000C0C0C0C0C0C0C000000000000000000109
:1036800001010101000000071F7FFFFFFFFFFFFF97
:10369000FFFFFFFFFFFFFFFFFFFFFFFF7F3F0F0069
:1036A0000000010101010100000000000000000015
:1036B00000000000000070783C1E0E060001078F1D
:1036C000FFFFFFFFFFFFFFFFFFFFFF070300000EED
:1036D0001E3E7C783000000000000000000000006A
:1036E00000000000000000000000000000000000DA
:1036F00000257F7FFFFFFFFFFFFF7F7F7F00000030
:1037000000000000000000000000000000000000B9
:1037100000000000000000000000000000000000A9
:103720000000000000000001010101010000000094
:103730000000000000000000000000000000000089
:1037400000000000E07098ECF6F2FBFBFBFBFBFBDB
:10375000FBF3E3C3030303030303038383C3C3C371
:1037600083030383C3830303C30303030303020627
:103770000C1870E0000000063FF0CF3F7FFFFFFF16
:10378000FFFFFFFFFFFF7F3F070000000000000F6B
:10379000191010181F07001F1F03060C1F00000040
:1037A0000000000000C0E03F060000000000010330
:1037B0000206040D0D0D0D0D0C0C0C0C0C0C0C0C5C
:1037C0000C0C0C0C0C0C0C0C0C0C0C0C0C0C0C0C39
:1037D0000C0C0C0C0C04060203010000000000009D
:1037E000C0F0380C0406020303038383838383033E
:1037F0000303838383838303838383838303030399
:10380000C3E3F3F3FBFBFBFBFBF2F6E4CC38F0C0C5
:10381000000000067FE0800000000000000F19306B
:1038200030301F0F000D3F04040400003F07040464
:103830000400000E3F7FFFFFFFFFFFFFFFFFFFFFC2
:103840007F9FE07F040000000000010306040C0CD1
:103850000C0C0C0C0C0C0C0C0C0C0C0C0C0C0C0CA8
:103860000C0C0C0C0C0C0C0C0C0C0C0D0D0D0F0D91
:103870000D0D040603010000000000000000000020
:103880000000000000000000000080F0F8FCFEFFD7
:10389000FFFFFFFFFFFFFFFEFEFCF0E00000000067
:1038A0000000000000000000000000000000000018
:1038B000000000000000000000000000071F7FFF64
:1038C000FFFFFFFFFFFFFFFFFFFFFF7F3F0F000036
:1038D00000000000000000000000000000000000E8
:1038E0000000000000000000C0F0F0F8F8FCFCFC54
:1038F000FCFCFCFDFDFDFFFFFDFDFDFCFCFCFCF800
:10390000F8F8F0F0E0800000000000000000000087
:10391000000000000000000038FFFFFFFFFFFFFF76
:10392000FFFF7F3F9FCFE7F1F8FCF9E7CFBF7F7F35
:10393000FFFFFFFFFFFFFFFF180000000000000077
:1039400000000000000000C0E0F0F0F0F1F3F3F13F
:10395000F1F0F0F0F2F3F3F3F3F3F3F3F3F3F3F343
:10396000F3F2F0F1F1F1F3F3F1F0F0F0F0E0C00078
:1039700000000000000000007FFFFFFFFFFFFFFFCF
:10398000FFFFFFFFFFFFFFFF7F3F3F1F0F0F1F3FA7
:103990003F7FFFFFFFFFFFFFFFFFFFFFFFFFFFFF77
:1039A000FF7F000000000000000000000101030391
:1039B00003030303030301010000000000000000F3
:1039C00000000000000001010103030303030303DF
:1039D00003010000000000000000000000000000E3
:1039E000000000000080C0C0E0E0F0F0F0F8F8F85F
:1039F000F8F8F8F8F8F8F8F8F8F8F0F0F0E0E0E0A7
:103A0000C0808000000000000000000000000000F6
:103A100000000000000000000000000000000000A6
:103A20000000E0F0F8FCFEFFFFFFFFFFFFFFFFFFDD
:103A3000FFFFFFFFFFFFFFFFFFFFFFFFFFFFFFFF96
:103A4000FFFFFFFFFFFFFFFEFCF8F0E0C0000000FB
:103A50000000000000000000000000000000000066
:103A60000000C0F0F8F8F9FBFBFBFBFFF7F7F7FFEE
:103A7000FFFFEFFFFFFFDFFFBFBFBF3F3F7F7F7F46
:103A80007F7FFFFFFFFFFFFFFFFFFFFFFFFFFFFF46
:103A9000FFFEF8F0C0000000000000000000000081
:103AA0000000000000FFFFFFFFFFFFFFFFFFFFFF21
:103AB000FFFFFFFFFFFFFFFFFFFFFFFFFFFFFFFF16
:103AC000FEFEFCFCF8F8F0F0E0E1C1838387EFFF35
:103AD000FFFFFFFFFFFFFFFFFFFEF8E08000000099
:103AE0000000000000000000010F3FFFFFFFFFFF8C
:103AF000FFFFFFFFFFFFFFFFFFFFFFFFFFFFFFFFD6
:103B0000FFFFFFFFFFFFFFFFFFFFFFFFFFFFFFFFC5
:103B1000FFFFFFFFFFFFFFFFFFFFFFFFFFFFFFFFB5
:103B2000FFFEF8000000000000000000000000019F
:103B30000303070F0F1F1F3F3F3F3F7F7F7F7F7FA5
:103B40007F7F7F7F7F7F7F7F7F7F7F7F7F3F3F3F45
:103B50003F3F1F1F1F0F0F0F0F070707030303032D
:103B60000303030301000000000000000000000048
:103B70000000000000000000000000000000000045
:103B80000000000000000000000000000000000035
:103B90000000000000000000000000000000000025
:103BA0000000000000000000000000000000000015
:103BB000000000000000000000000080E0F8FCFEB3
:103BC000FEFFFFFFFFFFFFFFFEFCF0000000000014
:103BD00000000000008080C0C0C0C0E0E0E0E0E085
:103BE000E0E0C0C0C0C08080000000000000000015
:103BF00000000000000000000000000000000000C5
:103C00000000000000000000000000000000001C98
:103C1000FFFFFFFFFFFFFFFFFFFFFFFFFF7F3F0FE4
:103C200080C0E0F0F8FCFEFEFFFFFFFFFFFFFFFF9C
:103C3000FFFFFFFFFFFFFFFFFFFFFFFFFFFFFFFE95
:103C4000FEFCF8F0F0E0C080000000000000000082
:103C50000000000000000000000000000000000064
:103C600000000000C0F0FDFF7F1F070707070303E8
:103C7000010000001E3F3F7F7F7F7FFFFFFFFFFFB0
:103C8000FFFFFFFFFFFFFFFFFFFFFFFFFFFFFFFF44
:103C9000FFFFFFFFFFFFFFFFFFFFFFFFFFFFFEF83C
:103CA000F0E08000000000000000000000000000C4
:103CB00000000000C0F0F8FEFFFF3F070100000019
:103CC00000000000000000F8FCFEFEFFFFFFFFFF09
:103CD000FFFEFEFEFEFFFFFDFDFDFBFBFBF3F3E73A
:103CE000E7C7C7878F0F0F0F1F1F1F3F7FFFFFFF04
:103CF000FFFFFFFFFFFFFFFFFFFEF8F0C0800000A7
:103D000000000000C0E0F8FEFFFFFF3F0F030000CF
:103D10000000000000000000000000067FFFFFFF21
:103D2000FFFFFFFFFFFFFFFFFFFFFFFFFFFFFFFFA3
:103D3000FFFFFFFFFFFFFFFFFFFFFFFFFFFEFEFE96
:103D4000FEFEFFFFFFFFFFFFFFFFFFFFFFFFFFFF85
:103D5000FFFFFFFEF8E0F8FCFFFFFFFF7F1F0700FB
:103D60000000000000000000000000000000000053
:103D7000000003070F1F3F7F7FFFFFFFFFFFFFFFD5
:103D8000FFFFFFFFFFFFFFFFFFFFFFFFFFFFFFFF43
:103D9000FFFFFFFFFFFFFFFFFFFFFFFFFF7F7F7FB3
:103DA0007F3F3F3F3F3F1F1F1F0F070103030101DD
:103DB0000000000000000000000000000000000003
:103DC00000000000000000000000000000000000F3
:103DD00001010103030303030303030303030303B9
:103DE00003030303030303030101010101000000B6
:103DF00000000000000000000000000000000000C3
:103E00000080000000000000800E0EFFFEFEF8F8AB
:103E1000E7E7E7FFFFFF7F3F3F1F1F0F0F0F0F0F6A
:103E20000F9FDFDF3FBF7FFFFFFFFFFF7F7F7F7FB2
:103E30001FEFF3F3B9DFEFEFF7F5B999A7BFBFBFF6
:103E4000BF7F7F7F7FFF3F3FDFEFEFF7F7F7F78120
:103E500081C1C1E1E10303070FFFFFFFFFFFFFFF88
:103E6000DFDFDFCFE1F1F0FCFCFEFFF970B0C0C195
:103E7000C1FFFFFFFFFFFCFCFCFCFFFFFFFFFFFF9C
:103E8000FFFFFFFFFFFFFF000000FCFEFEFEFFFC48
:103E9000FCFCF76F6F9FFFEFFEFEF9FCFCFFFFFFDE
:103EA000FFFFFFFFFFFFFFFFFFFFFFFFFFFFFFFF22
:103EB000FFFFFFFFFFFFFEFFFFFFFFF3F3EBBE7E01
:103EC000FFFFFFFFFFFFFFF800800FFFFFFFFF3F37
:103ED0003F3FC7CB0F0F0F0F7F7F7F7F7F7FFFFF9E
:103EE000FFFFFFFFFFFFFFFFFFFFFFFFFFFFFFFFE2
:103EF000FFFFFFFFFFFFFFFFFCF8C0CF9F7F7F3F6B
:103F00003FFFFFFFFEFFFFFFFFFFFFFFFFFFFFFF82
:103F1000FFFFFFFFFFFFFFFFFFFFFFFFFFFFFFFFB1
:103F2000FFFFFFFFFF7F7F7F7F7FFFFFFFFFFFFF21
:103F3000FEFFFFC30707EFF3F3FCE0E0E0C0C0C003
:103F40008080808080000000000000000000E0E130
:103F500061E1C0FFFFFFFFFFFFFFFFFFFFFFFFFF6C
:103F6000FFFFFFFFFFFFFFFFFFFFFFFFFFFFFF1F41
:103F7000E0FEFFFFFFFFFFFFFFFFFF070301010D53
:103F80000D0103FFFFFFFFFFFF3F3F3F3F1F1FFFED
:103F9000FFFFFFFFFF80070700000000C1FFFFFFDA
:103FA000FFFFFFFFFFFEFEF10F7F7F7F9F9F9FFFC1
:103FB000FFFFFFFFFFFFFFFFFCE0E080D080001C61
:103FC0003CFFFFFF5E1E7F7FBFFFFFFFFEBE3F0F78
:103FD0000F33CFFFFFFFFFFFFF3C3C9C9C9C01DDAC
:103FE000DEDFFFFFFFFFFFFFFFFFFFFFFEFCF8F834
:103FF000F8FCFEFFFFCF1F1F1F1F0F0F0E808687CD
:104000000F0F0F0F0FE7FFFFFFFEFEFEFFFFFFFF8B
:10401000FFFFFFFFFFFFFFFFFF777700F7F7F7EFE7
:10402000EF0F0F0F0787C1C1C1C1CFEF3FFFFCFCEE
:10403000F8F8FFFFFFFFFEFEFEFFFFFFFFFFFFFEA2
:10404000FEFEFEFFFFFFFFFFFFFFFFFFEFE7F7F8BA
:10405000FBFBE78F7F7F7FFFFFFFFFFFFFFFFFFF80
:10406000FFFFFFFFFFFFFFFCF8F0EEFFFFFFFFFF8A
:10407000FFFFEFEEF2FCFFFFFFFFFFFFFFFFFFFF81
:10408000FFFFFFFF7F7FBF8FCFF7F8FEFCFCFCFB3D
:10409000FEFEFEFEFCFEFFFFFFFDF7F2FFFFFFFF4F
:1040A000FFFFFFFBF8FCFFFFFF07FF7F1F0F0FFF66
:1040B000FFFFFFFFFFFFFFFFFFFFFFFFFF0F0FF3FC
:1040C000FDFEFEFEFEFDFDFDF8F8FBFBF3F3EFEF5A
:1040D000FFF7F7FFFFFFFFFFFFFFFFFFFFFFFFFF00
:1040E000FFFFFFFFFFFFFFFFFFF7FFFFFFFFFFFBEC
:1040F000FBFBF9F8F4F7EFE7CFCFCF9F9F3FFFFF30
:10410000FFFFFFFFFFFFFFFFFFFFFFFFFFFFFFFFBF
:10411000FFFFFFFFFF3F7F00000F0F0F8080003E7B
:104120000F0F030380E0E0F8FFFFFFFF7FFFFCF8C5
:10413000F39F3F1F1F0F0D0CC7EFEF2F1F1707E750
:10414000FFFFFFFFFFFFFFFFFFFFFFFFFFFFFFFF7F
:10415000FFFFFFFFFFFFFFFFFFFFFFFFFFFFFFFF6F
:10416000FFFFF103038FBF7F7F7F7F7F7F9FFFE094
:10417000FFFFFFFFFF9F1F1F3F3FFFFFFFE39B83EB
:104180007FDFFFEBF970030380C000000080C0E018
:10419000F00E0FFFFEFEF8F8F7F7F7FFFFFFFFFF47
:1041A000FFFFFFFFFFFFFFFFFFFFFFFFFFFFFFFF1F
:1041B000FFFFFFFFFF3FCFF7FFBF8FEFF3731B271B
:1041C000273FBFBFBFBFBF7F1FDFEFE3F3FBC1E1EF
:1041D000F1F1F1C0C307077FFFFFFFFFFFFFFFFF04
:1041E000FFFFFFFFFFFFFFFFCFCFCFC7E0F8F8FCD7
:1041F000FCFFFFFFF3F0E0E1E1FFFFFFFFFFFCFC4E
:10420000FCFCFFFFFFFFFFFFFFFFFFFFFF7F1F1F04
:104210001F0F0F0F87070F67F7F7EFE7FFCFEF9F2E
:10422000DFC7F7F9F9F8FDFFFFFFFFFFFFFFFFFF13
:10423000FFFFFFFFFFFFFFFFFFFFFFFFFFFFFFFF8E
:10424000FFFFFFFFFFFF7E0000C7FFFFFFFFFF3FF5
:104250003F3F3F8FFFFFFFFFFF7FFFFFBF3F1F0F6E
:104260003F3F7FFFFFFFFFFFFFFFFFFFFFFFFFFF5E
:10427000FFFFFFFFFFFFFFFFFFFFFFFFFFFCE0006F
:1042800000003DFFFFFFFFFFFFFFFFFFFFFFFFFFFE
:10429000FFFFFFFFFFFFFFFFFF7F7F7F7FFFFFFF2E
:1042A000FFFFFFFFFFFFFFFFFFFFFFFFFFFF031BFE
:1042B00019010303073FFFFFFCF3FFCF3FFFFFFFA1
:1042C0007F7E7EF3F0E0C0C1C180808080800000EE
:1042D00000000000000060F031F1C0FFFFFFFFFFB1
:1042E000FFFFFFFFFFFFFFFFFFFFFFFFFFFFFFFFDE
:1042F000FFFCFCF0FBE5EFCFFF9F1F4FFFFFFFFF31
:10430000FFFFFFFFFFFFFFFFC1800000030302006C
:10431000E7FFFFFFFFFFFFFFF9F1F100383D7FFFEF
:10432000FFFCFCFCFCFEFFFFFFFFFFFFFFFEFEDDCE
:10433000C10CCFEFDFDFFFFFFFFFFFFFFFFFFFFF3E
:10434000FCF0F0F0F080001C3CFFFFFFFE7F7F7F61
:10435000FFFFFFFFFF7F7F8F0FA7CFFFFFFFFFFF55
:10436000FFFFFFFFFF7F3FBFBF9F3C2087FFFFFF97
:10437000FFFFFFFFFFFFFFFFFFFFFFFFFFFEFEFF4F
:10438000FFFFFFFFFFFFFFFFFF8382E0F0F0F0E0A1
:10439000C0FFFFFFFFFFFFFFFFFFFFFFFFFFFFFF6C
:1043A0003FC1F0FBFFF7F7FFFF3F0F0F0F87C3C3BE
:1043B000C1C3CFEFBFFFFCFCF8F8FFFFFFFEFEFE1E
:1043C000FEFFFFFFFFFFFFFEFCFCFFFFFFFFFFFF05
:1043D000FFFFFFFFFFFFFFFFCFEFF3FBF881197D2A
:1043E0003C7FFFFFFFFFFFFFFFFFFFFFFFFFFFFF20
:1043F000FFFFFFFFFFFFFFFFFFFFFFFFFFFFFFFFCD
:10440000FFFFFFFFFFFFFFFF7FBFBF8FEFEBF3FC5F
:10441000FCFFFFFFFFFFFFFBFFFCFCFCFCFEFFFFC0
:10442000FFFDFDE7FFFFFFFFFFFFFFFFFFFDFFFFBA
:10443000FFFFFFFF1F1F0FFFFFFFFFFFFFFFFFFF3C
:10444000FFFFFFFFFFFFFFFFFFFF7F3FBFBF3EFEFE
:10445000FFFFFFFEFFFDFD7BBBB7D7EFE7EFFFFFE1
:10446000FFFFFFFFFFFFFFFFFFFFFFFFFFFFFFFF5C
:10447000FFFFFFFFFFFFFFFFFEFEFDFBF9F3F3E78A
:10448000EFEFDF3FFF7FFFFFFFFFFFFFFFFFFFFFBC
:10449000FFFFFFFFFFFFFFFFFFFFFFFFFFFFFF012A
:1044A00001011F1F0080807E1F1F070781E1F9F9AE
:1044B000FFFFFFFFFFFFFFFF83BC7EFFFF3F0F0EED
:1044C0000E0101070737F1F9FEFFFFFFFFFF7F7FB6
:1044D0003FFFFFFFFFFFFFFFFFFFFFFFFFFFFFFFAC
:1044E000FFFFFFFFFFFFFFFFFFFFFFFFFDE70F875E
:1044F0007F3F3F3FBFDFC0FFFFFFFFFFFFFF9F1F6B
:104500007F7FFFFFFFE79B877FFFFFCBFB7F0307DB
:10451000808080000000C0C080F20EFFFFFEF8F82F
:10452000FFF7F7FFFFFFFFFFFFFFFFFFFFFFFFFFAB
:10453000FFFFFFFFFFFFFFFFFFFFFF3F3FBFBF8FFB
:104540008FF7F7F9F9CFCFF7F7F7F9D9D9C7DFDF49
:10455000DFDFDFBFBFBFBFBF7F7FFFFFFFFFFFFF0B
:10456000FFFFFFFFFFFFFFFFFFFFFFFFFFFFFFFF5B
:10457000DFDFDFC7E0F8F8FCFCFEFFFFF3F1C1C1AD
:10458000C1FFFFFFFFFFFFFCFCFCFFFFFFFFFFFF82
:10459000FFFFFFFFFFFFFFFFFFFFFFFFFFFFFF3FEB
:1045A0009F9FEFEFEFEFF3F3FDFDFEFEFFFFFFFF39
:1045B000FFFFFFFFFFFFFFFFFFFFFFFFFFFFFFFF0B
:1045C000FFFFFFFFFFFFFFFFFFFEFEFDFCFCFBFB0D
:1045D000E7E7DF3F3FFFFFFFBFFF7FFFFFFFFF3F3B
:1045E000BF3FEFDF9F7FAF0F7F7FFFFFFFFFFFFF2B
:1045F000FFFFFFFFFFFFFFFFFFFFFFFFFFFFFFFFCB
:10460000FFFFFFFFFFFFFFFFFF3F3FCFF1F1FEFE88
:10461000FFFFFFFFFFFFFFFFFFFFFFFFFFFFFFFFAA
:10462000FFFFFFFFFFFFFFFFFFFFFFFFFFFFFFFF9A
:10463000FFFFFFFF7F7F7FFFFFFFFFFFFFFFFFFF0A
:10464000FFFF7FFFFFFFFCFCF3CFC133F1E3C0C2EC
:10465000C382808080000000010000000100E1F0C2
:1046600071E1C1FFFFFFFFFFFFFFFFFFFFFFFFFF44
:10467000FFFFFFFFFFFFFFFF8707F8F8FFFFFFFFC8
:10468000FFFFFF0F0181FFFFFFFFFFF7070301019E
:1046900001090D02FEFFFFFFFFFFFF3F3F3F3F3FCE
:1046A0003FFFFFFFFFFF8106060000010181F9FFC8
:1046B000FFFFF8C01FFFFFFFFFFFFFFFFCE1E11F4F
:1046C000FFFFFFFFFFFFFFFFFCF0E0F0F0C0003C4A
:1046D0003CFFFFFFFEFEFF7FFFFFFFFFFFFF7FCFDF
:1046E0000F27CFFFFFFFFF00FFFFFFFFFFFFFFFFD1
:1046F000FFFFFF07F8F8FFFFFFFFFFFFFFFEFEFED3
:10470000FCFCFCFEFFFFFFFF7F7FBFBFCFCCC0C024
:10471000EEEF9FDFDF3FFFFFFFFFFEFEFEFFFFFF2D
:10472000FFFFFFFFFFF80303FFFFFFFFFFFFFFFF98
:10473000FC01013F4F87C1C1C1C3EFFFFFFFFCFC7C
:10474000F8F8FFFFFFFEFFFFFEFFFFFFFFFFFFFE8A
:10475000FEFFFFFFFFFFFFFFF0E7E79F7F7F3F3F89
:104760003F3FC5E0F08F8F7F7FFFFFFFFFFFFFFF21
:10477000FFFFFFFFFFFFFFFFFFFEFFFFFFFFFFFF4A
:10478000FFFFFFFFFFFFFFFFFFFFFFFFFFFFFFFF39
:10479000FFFFFFFF7F7F9FE0E0C38F9F3F3F3F3FD3
:1047A0003FCFE0E0FEFEFFFFFFFFFFEEFFFFFFFF5A
:1047B000FFFFFFF7FFFDFFFFFFFFFF7F1F1F0FFF43
:1047C000FFFFFFFFFFFFFFFFFFFFFFFFFFFF0FF7F1
:1047D000F7FBF9F9F3F7EF6F1F3F9CE4E3F1F9F70B
:1047E000F7FFFFF7FFFFFFFFFFFFFFFFFFFFFFFFE9
:1047F000FFFFFFFFFFFFFFFFFFFFFFFFFFFFFBFBD1
:104800001979F1E6861F7FFFFFFFFFFFFFFFFFFF24
:10481000FFFFFFFFFFFFFFFFFFFFFFFFFFFFFFFFA8
:10482000FFFFFFFFFFFFFF0101011F1F0080807ED0
:104830001F1F070781E1E1F9FFFFFFFFFFFFFFF007
:10484000FF9F7F3F2F2F030106007EFFFFFF7F8723
:10485000F3FFFFFFFFFFFFFFFFFFFFFFFFFFFFFF74
:10486000FFFFFFFFFFFFFFFFFFFFFFFFFFFFFFFF58
:10487000FFFFF0F10F7F7E7E81FFFFFFFFFFFFFF55
:10488000FFFFFFFFFF9F1F1F7F7FFFFFEFE79F7F60
:104890007FFFFFCFFF7F0307808000000000000044
:1048A000800E0FFFFEFEF8F8F7F7F7FFFFFF7F3FE0
:1048B0001F1F0F0F0F0F0F0FDFDFDFBFBF7F7FFF48
:1048C000FFFFFFFF7F7F7F9F9FE7FBFBFDDFEFEF9A
:1048D000F3F3BD8DB39F9F9F9F3F3F3F3F7F3FBF00
:1048E000DFDFEFEFF3F3F38181E1E1E1E183030740
:1048F0000FFFFFFFFFFFFFFFDFDFDFC7E0F8F8FC80
:10490000FCFFFFFFF3F1C0C1C1FFFFFFFFFFFCFC95
:10491000FCFCFFFFFFFFFFFFFFFFFFFFFFFFFF00AC
:104920000000FCFEFFFFFFFCFCFFFFFF9FBFFFFF3F
:10493000FEF9F9FCFEFFFFFFFFFFFFFFFFFFFFFF98
:10494000FFFFFFFFFFFFFFFFFFFFFFFFFFFFFEFF78
:10495000FFFFFFFFFFEFFFFFFFFFFFFFFFFFFFFF77
:1049600000808FEFFFFFFFFFFF3FFFFF5F3F0F0F55
:104970003F3F7FFFFFFFFFFFFFFFFFFFFFFFFFFF47
:10498000FFFFFFFFFFFFFFFFFFFFFFFFFFFFFFFF37
:10499000FCF0C0EF9F7F7F3F3FFFFFFFFFFFFFFF68
:1049A000FFFFFFFFFFFFFFFFFFFFFFFFFFFFFFFF17
:1049B000FFFFFFFFFFFFFFFFFFFFFFFFFFFFFFFF07
:1049C000FFFFFFFFFFFFFFFFFFFFFCC3870FEFF3BA
:1049D000F3FCF8E0F1C0C1C0C38280808000000019
:1049E000000000000001E1F171E1C0FFFFFFFFFFE7
:1049F000FFFFFFFFFFFFFFFFFFFFFFFFFFFFFFFFC7
:104A0000FFFFFFFFFFFF1F1FE0FFFFFFFFFFFFFF95
:104A1000FFBF3F3F3F9F9F9FDFCFCFFFFFFFFFFFC6
:104A2000FF3F3F1F1F1F9F9FFFFFFFFFFFE7E7E7BE
:104A3000E7E7CFCF8FCFCFFFFFFFFFFFFFFEFEF1F6
:104A40000F7F7F7F9F9F9FBFFFFFFFFFFFFFFFFF46
:104A5000FCF0F0F0F0C0001C3CFFFFFFFE7E7F7F0B
:104A6000FFFFFFFFFF7E7F8F0F23CFFFFFFFFFFFC3
:104A7000FF7C7C9C9C9C019CDEDFFFFFFFFFFFFF17
:104A8000FFFFFFFEFFFFFFFFFFFFFFFFFFFF8F3F67
:104A90009F9FEFE6F6F0F6F7EFEFDF8F8FE7FFFF70
:104AA000FFFFFFFFFFFFFFFFFFFFFFFFFFFFFFFF16
:104AB000F7F7F700F7F7F7CFEF1F0F0F0787C1C121
:104AC000C1C1EFEF3FFFFCFCF8F8FFFFFFFEFEFE69
:104AD000FEFFFFFFFFFFFFFEFEFEFFFFFFFFFFFFEA
:104AE000FFFFFFFFCFF7F7F8FBE7E79F7F7F7FFF31
:104AF000FFFFFFFFFFFFFFFFFFFFFFFFFFFFFFFFC6
:104B0000FFFFFFFFFFFFFFFFFFFFFFFFFFFFFFFFB5
:104B1000FFFFFFFFFFFFFFFFFFFFFFFF7FBFBFDFC5
:104B2000DFE7F8FEFDFDFDFBFAFEFEFCFCFEFFFFED
:104B3000FFFDE5EAFFFFFFFFFFFFFFFFFDFDFFFFBA
:104B4000FFFFFF7F1F1F0FFFFFFFFFFFFFFFFFFFA5
:104B5000FFFFFFFFFFFFFFFF1FF7F9F9FEFEFEFD5E
:104B6000FCFBFB3737D7EFEFFFFFFFFFFFFFFFFF38
:104B7000FFFFFFFFFFFFFFFFFFFFFFFFFFFFFFFF45
:104B8000FFFFFFFFFFFFFFFFFFFBFBE5E5DEBF3F92
:104B9000FFFFFFFFFFFFFFFFFFFFFFFFFFFFFFFF25
:104BA000FFFFFFFFFFFFFFFFFFFFFFFFFFFFFF0113
:104BB00001010F0F0080007E1F1F070781E1F9F937
:104BC000FFFFFFFFFFFFFFFFFFC03F0F070F0107C2
:104BD0000D87F3FCFFFF1FC7FFFFFFFFFFFFFFFF76
:104BE000FFFFFFFFFFFFFFFFFFFFFFFFFFFFFFFFD5
:104BF000FFFFFFFFFFFFFFFFFFFFF7033F7FFFFF09
:104C0000FFFCFC03FFFFFFFFFFFFFFFFFF9F9F1F56
:104C10007F7FFFFFFFE79F7F7FFFFFCB7B7F030748
:104C2000404C0008000000208800000070200008B0
:104C3000C84C000888000020180E000080200008E2
:104C400000A24A040000000000000000010203046A
:104C50000607080900000000010203040102030422
:104C60000607080902040608000000000000000012
:104C700000080140010002020000000000000000E6
:104C80000000000000000000000000000000000024
:104C9000001001400020020200000000000000009F
:104CA0000000000000000000000000000000000004
:104CB00000000000000000000000000000000000F4
:084CC0000000000000000000EC
:04000005080000ED02
:00000001FF
